:020000040800F2
:1000000000800020416500089165000891650008A6
:1000100091650008916500089165000800000000E6
:1000200000000000000000000000000091650008D2
:10003000916500080000000091650008D1130008D8
:1000400091650008916500089165000891650008B8
:1000500091650008916500089165000891650008A8
:100060009165000891650008916500089165000898
:100070009165000891650008916500089165000888
:100080009165000891650008916500089165000878
:10009000551D0008916500089165000891650008EC
:1000A0009165000891650008916500089165000858
:1000B0009165000891650008916500089165000848
:1000C0009165000891650008916500089165000838
:1000D0009165000891650008916500089165000828
:1000E0009165000891650008916500089165000818
:1000F0009165000891650008916500089165000808
:1001000000000000000000000000000091650008F1
:1001100091650008916500089165000891650008E7
:1001200091650008916500089165000891650008D7
:1001300091650008916500080000000000000000C3
:1001400091650008916500089165000800000000B5
:10015000000000000000000000000000000000009F
:100160000000000000000000916500089165000893
:100170009165000800000000000000000000000081
:08018000000000009165000879
:10018800044B05481B1A062B02D9044B03B1184728
:10019800704700BF9F0A00209C0A00200000000052
:1001A80005490648091A891001EBD171491002D096
:1001B800034B03B1184770479C0A00209C0A002093
:1001C8000000000010B5064C237843B9FFF7D8FFAC
:1001D800044B13B10448AFF300800123237010BD12
:1001E8009C0A002000000000BCAF000808B5084BBE
:1001F8001BB108480849AFF300800848036813B9E1
:10020800BDE80840CCE7064B002BF9D09847F7E744
:1002180000000000BCAF0008A00A00209C0A0020D3
:100228000000000000B502B4FFB40B4805F090FDD3
:10023800FFBC0A49086802BC00BD00BF00B503B492
:100248000649086800F10100086003BC00BD00BF52
:1002580000B500BD00B500BD000000000000002092
:10026800844641EA000313F003036DD1403A41D3B9
:1002780051F8043B40F8043B51F8043B40F8043B78
:1002880051F8043B40F8043B51F8043B40F8043B68
:1002980051F8043B40F8043B51F8043B40F8043B58
:1002A80051F8043B40F8043B51F8043B40F8043B48
:1002B80051F8043B40F8043B51F8043B40F8043B38
:1002C80051F8043B40F8043B51F8043B40F8043B28
:1002D80051F8043B40F8043B51F8043B40F8043B18
:1002E80051F8043B40F8043B51F8043B40F8043B08
:1002F800403ABDD2303211D351F8043B40F8043BA8
:1003080051F8043B40F8043B51F8043B40F8043BE7
:1003180051F8043B40F8043B103AEDD20C3205D3B7
:1003280051F8043B40F8043B043AF9D2043208D0AF
:10033800D2071CBF11F8013B00F8013B01D30B8821
:1003480003806046704700BF082A13D38B078DD0FF
:1003580010F003038AD0C3F10403D21ADB071CBFD1
:1003680011F8013B00F8013B80D331F8023B20F83B
:10037800023B7BE7043AD9D3013A11F8013B00F874
:10038800013BF9D20B7803704B7843708B788370FC
:100398006046704781F0004102E000BF83F00043EF
:1003A80030B54FEA41044FEA430594EA050F08BF08
:1003B80090EA020F1FBF54EA000C55EA020C7FEACC
:1003C800645C7FEA655C00F0E2804FEA5454D4EB49
:1003D8005555B8BF6D420CDD2C4480EA020281EA13
:1003E800030382EA000083EA010180EA020281EA4B
:1003F8000303362D88BF30BD11F0004F4FEA01319D
:100408004FF4801C4CEA113102D0404261EB4101AB
:1004180013F0004F4FEA03334CEA133302D0524231
:1004280063EB430394EA050F00F0A780A4F10104ED
:10043800D5F1200E0DDB02FA0EFC22FA05F2801827
:1004480041F1000103FA0EF2801843FA05F359410D
:100458000EE0A5F120050EF1200E012A03FA0EFC8C
:1004680028BF4CF0020C43FA05F3C01851EBE371B6
:1004780001F0004507D54FF0000EDCF1000C7EEBD3
:1004880000006EEB0101B1F5801F1BD3B1F5001F11
:100498000CD349085FEA30004FEA3C0C04F1010430
:1004A8004FEA445212F5800F80F09A80BCF1004F59
:1004B80008BF5FEA500C50F1000041EB045141EADB
:1004C800050130BD5FEA4C0C404141EB010111F4DC
:1004D800801FA4F10104E9D191F0000F04BF014687
:1004E8000020B1FA81F308BF2033A3F10B03B3F165
:1004F80020020CDA0C3208DD02F1140CC2F10C02F5
:1005080001FA0CF021FA02F10CE002F11402D8BF52
:10051800C2F1200C01FA02F120FA0CFCDCBF41EA1E
:100528000C019040E41AA2BF01EB0451294330BDED
:100538006FEA04041F3C1CDA0C340EDC04F11404CA
:10054800C4F1200220FA04F001FA02F340EA0300A1
:1005580021FA04F345EA030130BDC4F10C04C4F1E7
:10056800200220FA02F001FA04F340EA03002946C7
:1005780030BD21FA04F0294630BD94F0000F83F411
:10058800801306BF81F480110134013D4EE77FEAF4
:10059800645C18BF7FEA655C29D094EA050F08BF40
:1005A80090EA020F05D054EA000C04BF1946104621
:1005B80030BD91EA030F1EBF0021002030BD5FEA65
:1005C800545C05D14000494128BF41F0004130BD8D
:1005D80014F580043CBF01F5801130BD01F00045E1
:1005E80045F0FE4141F470014FF0000030BD7FEA54
:1005F800645C1ABF194610467FEA655C1CBF0B464F
:10060800024650EA013406BF52EA033591EA030F65
:1006180041F4002130BD00BF90F0000F04BF00215D
:10062800704730B54FF4806404F132044FF0000590
:100638004FF0000150E700BF90F0000F04BF002109
:10064800704730B54FF4806404F1320410F000456F
:1006580048BF40424FF000013EE700BF42004FEA6A
:10066800E2014FEA31014FEA02701FBF12F07F43E7
:1006780093F07F4F81F06051704792F0000F14BFE4
:1006880093F07F4F704730B54FF4607401F0004528
:1006980021F0004120E700BF50EA010208BF70477F
:1006A80030B54FF000050AE050EA010208BF704774
:1006B80030B511F0004502D5404261EB41014FF4DD
:1006C800806404F132045FEA915C3FF4DCAE4FF0E1
:1006D80003025FEADC0C18BF03325FEADC0C18BFC8
:1006E800033202EBDC02C2F1200300FA03FC20FA19
:1006F80002F001FA03FE40EA0E0021FA02F1144466
:10070800C1E600BF70B54FF0FF0C4CF4E06C1CEA7A
:1007180011541DBF1CEA135594EA0C0F95EA0C0FEF
:1007280000F0DEF82C4481EA030621EA4C5123EA62
:100738004C5350EA013518BF52EA033541F4801191
:1007480043F4801338D0A0FB02CE4FF00005E1FB44
:1007580002E506F00042E0FB03E54FF00006E1FB8E
:1007680003569CF0000F18BF4EF0010EA4F1FF04D1
:10077800B6F5007F64F5407404D25FEA4E0E6D4111
:1007880046EB060642EAC62141EA55514FEAC52022
:1007980040EA5E504FEACE2EB4F1FD0C88BFBCF59E
:1007A800E06F1ED8BEF1004F08BF5FEA500E50F14F
:1007B800000041EB045170BD06F0004646EA010115
:1007C80040EA020081EA0301B4EB5C04C2BFD4EB47
:1007D8000C0541EA045170BD41F480114FF0000E40
:1007E800013C00F3AB8014F1360FDEBF002001F0AE
:1007F800004170BDC4F10004203C35DA0C341BDC28
:1008080004F11404C4F1200500FA05F320FA04F0F9
:1008180001FA05F240EA020001F0004221F000412D
:1008280010EBD37021FA04F642EB06015EEA430EA0
:1008380008BF20EAD37070BDC4F10C04C4F12005D0
:1008480000FA04F320FA05F001FA04F240EA020083
:1008580001F0004110EBD37041F100015EEA430E54
:1008680008BF20EAD37070BDC4F1200500FA05F274
:100878004EEA020E20FA04F301FA05F243EA0203F3
:1008880021FA04F001F0004121FA04F220EA020002
:1008980000EBD3705EEA430E08BF20EAD37070BD48
:1008A80094F0000F0FD101F00046400041EB010128
:1008B80011F4801F08BF013CF7D041EA060195F00A
:1008C800000F18BF704703F00046520043EB0303C4
:1008D80013F4801F08BF013DF7D043EA06037047B1
:1008E80094EA0C0F0CEA135518BF95EA0C0F0CD0BC
:1008F80050EA410618BF52EA4306D1D181EA030102
:1009080001F000414FF0000070BD50EA410606BFFB
:100918001046194652EA430619D094EA0C0F02D140
:1009280050EA013613D195EA0C0F05D152EA033685
:100938001CBF104619460AD181EA030101F00041A3
:1009480041F0FE4141F470014FF0000070BD41F0EC
:10095800FE4141F4780170BD70B54FF0FF0C4CF4C6
:10096800E06C1CEA11541DBF1CEA135594EA0C0FE5
:1009780095EA0C0F00F0A7F8A4EB050481EA030E32
:1009880052EA03354FEA013100F088804FEA033319
:100998004FF0805545EA131343EA12634FEA0222E7
:1009A80045EA111545EA10654FEA00260EF00041A8
:1009B8009D4208BF964244F1FD0404F5407402D2FA
:1009C8005B084FEA3202B61A65EB03055B084FEA8B
:1009D80032024FF480104FF4002CB6EB020E75EB88
:1009E800030E22BFB61A754640EA0C005B084FEAB0
:1009F8003202B6EB020E75EB030E22BFB61A75462D
:100A080040EA5C005B084FEA3202B6EB020E75EB77
:100A1800030E22BFB61A754640EA9C005B084FEAEF
:100A28003202B6EB020E75EB030E22BFB61A7546FC
:100A380040EADC0055EA060E18D04FEA051545EAEB
:100A480016754FEA06164FEAC30343EA52734FEA94
:100A5800C2025FEA1C1CC0D111F4801F0BD141EA0D
:100A680000014FF000004FF0004CB6E711F4801F72
:100A780004BF01430020B4F1FD0C88BFBCF5E06F52
:100A88003FF6AFAEB5EB030C04BFB6EB020C5FEA62
:100A9800500C50F1000041EB045170BD0EF0004EB7
:100AA8004EEA113114EB5C04C2BFD4EB0C0541EAE9
:100AB800045170BD41F480114FF0000E013C90E6E6
:100AC80045EA060E8DE60CEA135594EA0C0F08BFAA
:100AD80095EA0C0F3FF43BAF94EA0C0F0AD150EAA9
:100AE80001347FF434AF95EA0C0F7FF425AF10463C
:100AF80019462CE795EA0C0F06D152EA03353FF464
:100B0800FDAE1046194622E750EA410618BF52EAE0
:100B180043067FF4C5AE50EA41047FF40DAF52EAB4
:100B280043057FF4EBAE12E74FF0FF3C06E000BF51
:100B38004FF0010C02E000BF4FF0010C4DF804CD5E
:100B48004FEA410C7FEA6C5C4FEA430C18BF7FEA1E
:100B58006C5C1BD001B050EA410C0CBF52EA430C4C
:100B680091EA030F02BF90EA020F0020704710F1CC
:100B7800000F91EA030F58BF994208BF90422CBF5B
:100B8800D8176FEAE37040F0010070474FEA410C54
:100B98007FEA6C5C02D150EA013C07D14FEA430C72
:100BA8007FEA6C5CD6D152EA033CD3D05DF8040BE3
:100BB800704700BF8446104662468C461946634615
:100BC80000E000BF01B5FFF7B7FF002848BF10F1EC
:100BD800000F01BD4DF808EDFFF7F4FF0CBF012031
:100BE80000205DF808FB00BF4DF808EDFFF7EAFFAD
:100BF80034BF012000205DF808FB00BF4DF808ED68
:100C0800FFF7E0FF94BF012000205DF808FB00BF5C
:100C18004DF808EDFFF7CEFF94BF012000205DF8E6
:100C280008FB00BF4DF808EDFFF7C4FF34BF0120F3
:100C380000205DF808FB00BF4FEA410212F50012E0
:100C480015D211D56FF47873B3EB625212D94FEA0B
:100C5800C12343F0004343EA505311F0004F23FAF5
:100C680002F018BF404270474FF00000704750EA4A
:100C7800013005D111F0004008BF6FF00040704707
:100C88004FF00000704700BF53B94AB9002908BFA8
:100C980000281CBF4FF0FF314FF0FF3000F03CB888
:100CA80082B0EC462DE9005000F01EF8DDF804E0B3
:100CB80002B00CBC704700BF2DE9F041069C1546F8
:100CC80006460F46984600F029F805FB01F300FB9D
:100CD8000838A5FB0023B21A434467EB0303C4E9B1
:100CE8000023BDE8F08100BF2DE9F041069C904645
:100CF80006460F461D4600F05FF900FB05F5A0FB10
:100D0800082308FB0155B21A2B4467EB0303C4E917
:100D18000023BDE8F08100BF704700BF00292DE91E
:100D2800F043C0F2A6800026002BC0F29C808846C3
:100D380094469E46154604460F46002B3DD18A42EE
:100D480059D9B2FA82F33BB1C3F120029F4020FA8D
:100D580002F29D4017439C40290C220CB7FBF1FE80
:100D6800A8B201FB1E7742EA074700FB0EF3BB421D
:100D78000AD97F190EF1FF3280F00581BB4240F29B
:100D88000281AEF1020E2F44FF1AA4B2B7FBF1F3B1
:100D980001FB137744EA074700FB03F0B84208D980
:100DA8007F1903F1FF3280F0F080B84240F2ED8005
:100DB800023B43EA0E43002203E08B420FD9002294
:100DC8001346341C18BF012460424FF0000565EB40
:100DD80045015840514000196941BDE8F083B3FA14
:100DE80083F2002A40F086808B4202D3844500F2C9
:100DF800DB800123E5E712B90123B3FBF2F5B5FA6D
:100E080085F000283BD1781B4FEA154E1FFA85FC68
:100E18000122B0FBFEF8210C0EFB180741EA074738
:100E28000CFB08F3BB4207D97F1908F1FF3102D246
:100E3800BB4200F2BD808846FF1AA4B2B7FBFEF39E
:100E48000EFB137744EA07470CFB03FCBC4507D9A4
:100E58007F1903F1FF3102D2BC4500F2A7800B468F
:100E680043EA0843ADE752426FEA060663EB4303E1
:100E78005DE7404261EB41014FF0FF3654E7C0F1B6
:100E8800200224FA02F107FA00F385404FEA154ED2
:100E9800D7401943B7FBFEF20B0C0EFB12771FFA73
:100EA80085FC43EA07430CFB02F79F4204FA00F46F
:100EB80007D95B1902F1FF3074D29F4272D9023A06
:100EC8002B44DF1B89B2B7FBFEF80EFB187341EA0F
:100ED80003430CFB08F79F4208D95B1908F1FF315F
:100EE8005CD29F425AD9A8F102082B44D81B48EA81
:100EF80002428EE7C2F120032CFA03F10EFA02FE39
:100F080020FA03F741EA0E0E08FA02F028FA03F174
:100F18004FEA1E453843B1FBF5F8030C05FB1811E1
:100F28001FFA8EF743EA014107FB08F38B420CFADC
:100F380002FC09D911EB0E0108F1FF3930D28B42BE
:100F48002ED9A8F102087144C91A80B2B1FBF5F391
:100F580005FB131140EA014107FB03F78F4208D94B
:100F680011EB0E0103F1FF3016D28F4214D9023B68
:100F7800714443EA0843C91BA3FB0C89494509D3BB
:100F880005D000221DE79646FEE6134611E7944079
:100F98004445F6D2013BF4E70346EAE78846A5E76D
:100FA800C846D1E702468CE713460AE7023B57E7F3
:100FB800A8F102082F443FE72DE9F041002B44D166
:100FC8008A42154604464FD9B2FA82F70E464FB107
:100FD800C7F12003B94020FA03F602FA07F50E43D9
:100FE80000FA07F44FEA154E230CB6FBFEF0AFB239
:100FF8000EFB106143EA014307FB00F1994209D94E
:101008005B1900F1FF3280F0EC80994240F2E980F0
:1010180002382B445A1AA4B2B2FBFEF30EFB132279
:1010280044EA024207FB03F7974208D9521903F131
:10103800FF3180F0D880974240F2D580023B43EAE6
:10104800004000263146BDE8F0818B4247D8B3FA0C
:1010580083F6002E48D18B4202D3824200F2CD8023
:1010680001203146BDE8F08112B90125B5FBF2F542
:10107800B5FA85F8B8F1000F77D14A1B4FEA154E3B
:10108800AFB20126B2FBFEF0230C0EFB102143EA9F
:10109800014107FB00F38B4207D9491900F1FF32E0
:1010A80002D28B4200F2BA801046C91AA4B2B1FB30
:1010B800FEF30EFB131144EA014407FB03F7A742B2
:1010C80008D9641903F1FF3280F08F80A74240F2FB
:1010D8008C80023B43EA00403146BDE8F08100269F
:1010E80030463146BDE8F081C6F1200422FA04F505
:1010F800B3402B4320FA04FC01FA06F721FA04F561
:101108004FEA134E4CEA0707B5FBFEF8390C0EFB05
:1011180018551FFA83FC41EA05450CFB08F1A94262
:1011280002FA06F204D9ED1808F1FF3467D3A04695
:101138006D1ABFB2B5FBFEF40EFB145547EA054124
:101148000CFB04FC8C4504D9C91804F1FF355CD3A9
:101158002C4644EA0844CCEB0101A4FB0223994243
:1011680048D344D0204600266CE7C8F1200401FA91
:1011780008F305FA08F520FA04F7E1404FEA154E9E
:101188001F43B1FBFEF63A0C0EFB16111FFA85FC45
:1011980042EA01430CFB06F29A4200FA08F407D926
:1011A8005B1906F1FF3137D29A4235D9023E2B44FA
:1011B8009B1ABFB2B3FBFEF00EFB103347EA0343A2
:1011C8000CFB00F1994207D95B1900F1FF3221D2DB
:1011D80099421FD902382B445A1A40EA06466746F4
:1011E80050E7104616E70B4629E7134672E7B0406A
:1011F8009042B7D2601E002624E7304622E7A94273
:1012080095D9A8F102081D4492E78C45A0D9023C63
:1012180019449EE71046DFE70E46C9E7023829441D
:1012280043E700BF07B5F8B9684600F015FB08B1F9
:101238000F4804E001A800F00FFB18B10D4805F0B5
:101248008DFA11E00099CB1E072B03D90A4805F047
:1012580035FA09E0094A01990093D05C11B104F00C
:101268005BFD01E004F066FD03B05DF804FB00BF20
:101278006CB400087EB40008A7B400083EB60008A5
:1012880007B558B9684604F0DBFE0648BDF90010FA
:10129800BDF90220BDF9043005F010FA03B05DF87D
:1012A80004FB00BFD4B400081FB5F8B901A804F0C6
:1012B800F1FE9FED106ADDED016A9DED027ADDED2C
:1012C800037A0D4866EE866A27EE067A67EE867A16
:1012D800FDEEE66ABDEEC77AFDEEE77A16EE901AE5
:1012E80017EE102A17EE903A05F0E8F905B05DF808
:1012F80004FB00BF0000804307B5000808B558B9D3
:1013080004F06EFD054B0649002818BF194605482C
:10131800BDE8084005F0D2B908BD00BF36B50008E1
:101328003EB5000847B5000808B5032004F0F4FCF2
:10133800FEE7000010B590B0012306930793002341
:1013480008934FF4803302240E9306A84FF4E01359
:101358000D940F9300F0CEFF10BB0F230193039061
:101368004FF480630590214601A80294049301F08C
:10137800ABFA0446A0B901F073FC00F0A5FB0F4BD3
:10138800185D013404F094FC082CF8D100200146C3
:1013980004F0ECFC04F03CFE20B1094805F0DEF94D
:1013A800FFF7C2FF04F054FE08B10648F6E7FEF75F
:1013B80051FF00F0BBF9FEF74BFFFAE73EB6000815
:1013C80060B5000882B5000808B501F05BFCBDE80F
:1013D8000840FEF733BF00007FB588B90A4A536951
:1013E80043F4001353614FF47F43019301230293A5
:1013F80003900323059001A90448049301F0C2FC5B
:1014080007B05DF804FB00BF001002400010004860
:1014180007B500283AD1684600F01EFA01A800F086
:101428001BFA019A012A01D91A482DE0009B083BB2
:10143800072B28D8DFE803F004080C1014181C2028
:1014480015484FF480711AE013484FF4007116E004
:1014580011484FF4806112E00F484FF400610EE02C
:101468000D484FF480510AE00B484FF4005106E054
:1014780009484FF4804102E007484FF40041D2B2D6
:1014880001F04AFD02E0054805F068F903B05DF88F
:1014980004FB00BF46B600080010004867B6000805
:1014A8001B4B5A6930B542F400325A615A6987B009
:1014B80042F08052042500245A610DEB05010323F4
:1014C8004FF090400293049301950394059401F022
:1014D80059FC10484FF0A0424FF4803380E80C00CC
:1014E80001238460C460046145618461C46103624E
:1014F80044628462C36204634463846302F0E2FF6B
:10150800014610B1044805F0D9F807B030BD00BF56
:10151800001002400C0F0020ECB6000830B587B070
:10152800012300240090019318480394032369467B
:1015380002930494059403F043F9054608B114484E
:101548000EE0124803F0A4F8044610B111482146F1
:1015580014E00E48642103F0F8F8054620B10E485F
:10156800294605F0ABF80DE0084803F024F90446D5
:10157800064803F0CFF8014620B1084805F09EF868
:10158800284600E0204607B030BD00BF0C0F002001
:1015980013B700083CB7000859B7000884B700081B
:1015A80008B540B90220FFF7B9FFBDE80840014679
:1015B800014805F083B808BDA0B70008012808B5A0
:1015C8000FD0022804D10748BDE8084005F0C6B886
:1015D8004D20FEF727FEBDE808400146024805F009
:1015E8006DB808BDD3B700080CB8000807B540B9F6
:1015F800684600F031F901A800F02EF9009B019A25
:101608001A6003B05DF804FB07B538B901A800F00B
:1016180023F9019903480A6805F050F803B05DF80A
:1016280004FB00BF30B800082DE9F041154608B9A1
:10163800334820E009B933481DE022B1324B4C1E33
:101648001E6803460AE0314815E013F8012B002A0A
:101658004DD03244013C527812074BD5671C1846CE
:101668002146F2D11B78002B47D0294905F0A8F96B
:10167800064610B92748284937E0284905F0F2F806
:101688000446A0B9224905F09BF9064690B90C35E5
:1016980055F80C1C89B355F8042C1AB1204805F0EC
:1016A8000DF8F4E755F8083C01209847EFE74FF0AC
:1016B800000809E04FF0020806E03046394605F018
:1016C800D1F8044620B10C352F68002FF5D10AE077
:1016D800B8F1000F03D01348394604F0EFFF6B68E8
:1016E8004046984709E01048314604F0E7FF4FF0BC
:1016F800FF3402E00029B8D1F9E72046BDE8F081BF
:101708007BB800089CB80008FC010020ACB80008B1
:10171800CFB80008D6B800085CB9000806B90008B8
:101728000BB9000817B900081CB9000873B53F4D7C
:101738002B6823B13E4804F0C1FF00232B600DF154
:10174800070000F032FA00286ED19DF80730082B08
:1017580001D07F2B0DD1374C226852B1364804F0A6
:10176800ADFF364A1368013B13602368013B2360D1
:101778005AE0212B15D1324B1B68002B54D0314C29
:101788003149204605F090F82146304804F096FF8C
:10179800204605F0E7F8274B1860284B04441C60E6
:1017A80025E02B4A12681A44527812F0970212D098
:1017B80020490A684F2A9FBF204C20680370451CA7
:1017C80097BF013207209DF80700256098BF0A607F
:1017D80004F088FF28E00D2B26D1184B1A481B6807
:1017E80018491A7005F060F8154B01221A600A2092
:1017F800124C04F077FF0F4B20681E680246311A1E
:1018080011444F294FF0000102D802F8011BF6E7F6
:1018180019600C4E0F4B226030461A685021FFF7B2
:1018280003FF012326602B6002B070BD0400002076
:1018380051B90008B80A002058B90008080000206B
:10184800BC0A0020A80F0020580F00204DBC00083B
:10185800FC0100200C00002010B5084904460020B7
:1018680005F0AEF830B100210A4605F077F920609E
:10187800002010BD4FF0FF3010BD00BFCFB80008EA
:1018880010B506490446002005F09AF810B120600A
:10189800002010BD4FF0FF3010BD00BFCFB80008CA
:1018A8002DE9F04F804689B092460D46002944D074
:1018B80003AC00EB010906462746C8EB0A014E4572
:1018C8003144C8EB060325D013F00F0B03D11C4895
:1018D80004F0F4FE3C461B4B16F8011B1B681A4823
:1018E8000B445B7813F0970F08BF2E2204F1010315
:1018F80014BF2170227001931C4604F0DFFEBBF177
:101908000F0F019BD9D100221A7039460F4804F0F5
:10191800D5FED2E7002315F00F0523700DD01C4625
:10192800C5F110039C4204D2094804F0C7FE0134F3
:10193800F6E70648394604F0C1FE09B0BDE8F08F65
:1019480062B90008FC01002068B900086EB90008F7
:1019580074B90008012838B51DD002280E4C0F4D67
:1019680009D10F4804F0FAFE21682A680D48BDE83D
:10197800384004F0A3BE2046FFF76EFF10B9284692
:10198800FFF76AFF206829680246FFF789FF236886
:101998002A681344236038BDC00A002010000020C4
:1019A80078B9000810BB000808B50A4B1A680AB9CC
:1019B800094A1A6018686B460144994206D904F02E
:1019C800EBFD0C2303604FF0FF3008BD014B19609D
:1019D80008BD00BFC40A0020441D00204FF0FF309E
:1019E80070474FF400535360002070470120704740
:1019F800002070471C4B70B51B68044698471B4B6A
:101A08009C4206462DD11A4BB3F80811B3F80C21A5
:101A180092B212FA81F101F07F01A3F80811B3F82C
:101A28000A118A1A92B2A3F80A210022A3F80C21FB
:101A3800B3F80811B3F80A2192B289B21C4682B1F0
:101A48008B187F2B88BFC1F1800295B22144863163
:101A58002A46064803F089FE044803F094FEA4F8D9
:101A68000C51304670BD00BF1C120020F80F00203A
:101A7800C80A00202DE9F043044685B0E8B972B6DB
:101A88000F482146D0F81061D0F81451D0F81891B9
:101A9800D0F81C81D0F82071142200F5887004F069
:101AA800BFFD62B60748CDF80090CDF804800297D4
:101AB800214632462B4604F001FE05B0BDE8F0830E
:101AC800C80A00205EBB000810B5174C2368002127
:101AD800586802220B4604F049FE236800219868E2
:101AE80002220B4604F042FE2368104CD8680021FD
:101AF8000B46022204F03AFE20460D49002203F06C
:101B080052FA0C490C4B4A691A6020460B4B4B6140
:101B180003F05EFA20460A4903F020FE2046BDE89D
:101B2800104003F05CBA00BF28060020F80F002020
:101B3800280100205C0000201C120020FD1900086C
:101B480068010020F0B572B60A440E460F4F4FF4F4
:101B5800927545437C198034A3889BB2C1EB060E6D
:101B680083B196420ED063889BB21D4401337D5DDC
:101B780006F8015B03F07F036380A388013B9BB2F7
:101B8800A380E3E762B67046F0BD00BFC80A002034
:101B9800114600201A46FFF7D5BF08B50122FFF706
:101BA800D1FFB0FA80F0400908BD014608B5002011
:101BB800FFF7F3FF003018BF012008BDF8B5374E16
:101BC8004FF492737F2A03FB006306D9D3F81021E0
:101BD8000132C3F810210120F8BDB3F80A4112FA06
:101BE80084F47F2C82BFD3F814410134C3F8144124
:101BF8004FF4927303FB0063B3F80A4112FA84F4BA
:101C08007F2CF5D872B6D3F818411444C3F818419C
:101C18000A4491421CD04FF4927303FB006303F50E
:101C280084756C88A4B27F2C12D8B3F8064111F8D9
:101C380001EBA4B203F580772344013404F07F0458
:101C4800FC8083F886E06B8801339BB26B80E0E709
:101C58004FF4927303FB0063B3F8082195B2B3F80D
:101C68000A2192B253197F2B88BFC5F1800290B91F
:101C78000B4F97F8FC31032B0DD194B271193846EC
:101C88008631224603F071FD384603F07CFD10B919
:101C9800024BA3F80C4162B60020F8BDC80A002028
:101CA800F80F0020F8B51D461446D718BC42264642
:101CB8000FD033780A2B04F1010404D1002006491F
:101CC8000122FFF77BFF314601220020FFF776FF54
:101CD800ECE72846F8BD00BFD4B80008F0B51A4DA7
:101CE8004FF4927303FB0053B3F8844012FA84F460
:101CF8007F2C06D9D3F81C210132C3F81C210120FE
:101D0800F0BDD3F820411444C3F820410A4491425D
:101D180017D04FF4927444432F1911F801EBB7F818
:101D280080309BB21C44013303F07F03A7F8803056
:101D3800B7F8843005F804E001339BB2A7F8843083
:101D4800E5E70020F0BD00BFC80A0020014801F007
:101D58000CBD00BF2012002070B51B4B8AB0054691
:101D68006A4603F1200618685968144603C4083304
:101D7800B3422246F7D118689B8820602946A38081
:101D880011F8022B6B7843EA02230022144613F45D
:101D98007C450E4814D09B01C3F315030AAD05EB2F
:101DA800134515F8295C8554A01D072881BFA01E7E
:101DB8000C788440234388BF013101320446E6E7AA
:101DC80085540AB070BD00BF08BC0008EC0B0020A9
:101DD80038B5044600B301B38D798A884368102D5D
:101DE80005D0202D05D0082D05D1D05C38BDD05A9E
:101DF80038BDD05838BD0868FFF7AEFF29460246FF
:101E0800074804F05BFC2068FFF7A6FF0146054879
:101E180004F054FC002038BD38BD084638BD00BF6A
:101E28002EBC000850BC000838B50546F8B1F1B121
:101E38008C7988886B68102C05D0202C05D0082C4C
:101E480006D1C25402E0C25200E0C250002038BDA0
:101E58000868FFF781FF21460246064804F02EFC79
:101E68002868FFF779FF0146034804F027FC0120A2
:101E780038BD00BF2EBC000850BC000830B5044671
:101E880085B0C8B1437901259D4003790068D940E0
:101E9800013D0D40FFF760FF6279084B0146084895
:101EA800012A98BF03468DE80C0023790293054860
:101EB8002A462B4604F002FC05B030BD63BC00087E
:101EC80069BC00086FBC0008F7B50F4616461D46EA
:101ED800044610B30068FFF73FFFA3790093A38877
:101EE8003B44014601930E483246334604F0E6FB74
:101EF800A7685FB18DB10025A3899D4207EBC50096
:101F080005D23146FFF7BAFF0135F5E72DB10A20B2
:101F180003B0BDE8F04004F0E5BB03B0F0BD00BF7E
:101F280098BC00082DE9F04188460446E8B10068ED
:101F3800FFF712FF626801460D4804F0BFFBA7686F
:101F48000FB9BDE8F0810025A3899D4207EB05166E
:101F58000BD231462046FFF73BFF616802464346F5
:101F68003046FFF7B1FF0135EEE7BDE8F08100BF6D
:101F7800D3BC000838B50546092004F0B3FB082493
:101F88002868A0B1FFF7E8FE0146094804F096FB6F
:101F98002B6904444BB1074804F090FB0444462CD9
:101FA80003D9054804F08AFB08241035E8E738BD52
:101FB8004DBC00086CBC0008FBBC000870B50646A8
:101FC80009200D4604F08EFB013D103608246B1CD9
:101FD80018D056F8100CFFF7BFFE01460A4804F067
:101FE8006DFB2044C4B255B1084804F067FB204497
:101FF800C4B2462C03D9064804F060FB0824013D0E
:102008001036E4E770BD00BF4DBC00086CBC00088A
:10201800FBBC0008F0B5022885B031D103A8FFF752
:102028002FFC38B1884804F099FB8848FFF7A2FFD5
:10203800874822E0854C206848B9206890B9039900
:10204800844804F03BFB8148FFF794FFF9E0039DC7
:10205800FFF782FE0146284604F004FC0028ECD075
:102068001034E8E7FFF778FE01467B4804F026FBCA
:10207800A068A189FFF7A2FF784804F06FFBE0E0B1
:102088006846FFF7FDFB18B1754804F067FB14E0DC
:102098006E4C206830B923689BB90099714804F0E8
:1020A8000DFB0AE0009DFFF757FE0146284604F0A5
:1020B800D9FB0028EFD01034EBE76448FFF75AFF4C
:1020C800DAE701A8FFF7DCFB10B12046002117E092
:1020D800A568A789019E57B12868FFF73DFE01460C
:1020E800304604F0BFFB013F68B11035F2E73046D7
:1020F8005D4904F0B7FB002840F09A802046012192
:10210800FFF710FF9DE002A8FFF7BAFB002840F098
:1021180083800298554904F0A5FB48B903A8FFF746
:102128009BFB08B15248A8E728466168039A7BE000
:10213800AE68306810B937685FB946E0029FFFF7AC
:102148000BFE0146384604F08DFB0028F3D0083614
:10215800EFE703A8FFF780FB28B12868FFF7FCFD2D
:102168000146444840E029462046FFF731FE72798F
:1021780096F804E003990123934020FA0EF7013BF7
:1021880003FA0EF21F400B4003FA0EF320EA020294
:102198001A4329462046FFF747FE2068FFF7DCFD73
:1021A8000146354804F08AFA2868FFF7D5FD01464C
:1021B800314804F083FA3068FFF7CEFD3A4601460D
:1021C800039B2E4804F07AFA3BE004F0E5F939461F
:1021D80007603A46029804F0C1FC039004F0DCF969
:1021E800036823B12648029904F068FA29E0039AA3
:1021F80029462046FFF718FE2068FFF7ADFD014687
:102208001D4804F05BFA2868FFF7A6FD039A01460B
:102218001C4804F053FA14E029462046FFF7D8FD7D
:1022280061680390024628460123FFF74DFE08E047
:102238002068FFF791FD31460246134804F03EFA44
:1022480016E705B0F0BD00BFFEBC000894580108B1
:1022580011BF000866BF0008A1BF00082FC0000812
:10226800C6BF0008F5BF0008FCC000086EC0000823
:1022780072C0000891C00008BCC00008C0C00008B7
:10228800D1C00008EFC0000831C000081549D1F8D6
:10229800883043F47003C1F88830134B1A6842F051
:1022A80001021A605868114A02405A601A6822F0FE
:1022B800847222F480321A601A6822F480221A602A
:1022C8005A6822F4FE025A60DA6A22F00F02DA62D1
:1022D800186B074A02401A6300229A604FF00063A5
:1022E8008B60704700ED00E0001002400CC07FF8E2
:1022F800CCFC00FFF8B50368DB07044604D4236868
:102308009F0700F1C68057E1C14D6B6803F00C03CD
:10231800042B07D06B6803F00C03082B27D16B68DC
:10232800DE0324D54FF4003292FAA2F3B3FA83F312
:1023380043F02003C3F34213012B01D1296804E0C1
:1023480092FAA2F2B2FA82F2696A4FF4003393FA6F
:10235800A3F3B3FA83F3012203F01F0302FA03F392
:102368000B42CCD063689342C9D00120F8BDA94E76
:102378000023337000F08EFC07464FF4003292FAC7
:10238800A2F3B3FA83F343F02003C3F34213012B00
:1023980001D1296804E092FAA2F2B2FA82F2696ADB
:1023A8004FF4003393FAA3F3B3FA83F3012203F053
:1023B8001F0302FA03F30B4208D000F06BFC41F252
:1023C8008833C01B9842D8D90320F8BD23793370CD
:1023D800EB6A23F00F02A3681343EB626368012BD7
:1023E8002BD100F057FC06464FF4003292FAA2F3C4
:1023F800B3FA83F343F02003C3F34213012B01D153
:10240800296804E092FAA2F2B2FA82F2696A4FF4F9
:10241800003393FAA3F3B3FA83F3012203F01F0303
:1024280002FA03F30B427FF46AAF00F033FC41F287
:102438008833801B9842D7D9C6E700F02BFC0646A4
:102448004FF4003292FAA2F3B3FA83F343F0200375
:10245800C3F34213012B01D1296804E092FAA2F2D6
:10246800B2FA82F2696A4FF4003393FAA3F3B3FA2B
:1024780083F3012203F01F0302FA03F30B423FF434
:102488003EAF00F007FC41F28833801B9842D7D951
:102498009AE75F4D6B6813F00C0F07D06B6803F079
:1024A8000C03082B25D16B68D80322D4022292FA98
:1024B800A2F3B3FA83F343F02003C3F34213012BCF
:1024C80001D1296804E092FAA2F2B2FA82F2696AAA
:1024D800022393FAA3F3B3FA83F3012203F01F0351
:1024E80002FA03F30B4230D0236993427FF43DAFE5
:1024F8002BE02269484BBAB301221A6000F0CAFBEC
:102508000646022292FAA2F3B3FA83F343F02003B9
:10251800C3F34213012B01D1296804E092FAA2F215
:10252800B2FA82F2696A022393FAA3F3B3FA83F345
:10253800012203F01F0302FA03F30B4205D100F056
:10254800A9FB801B6428DCD93EE72A68F82393FAA4
:10255800A3F3B3FA83F36169DBB2994022F0F8027E
:1025680041EA02032B6027E01A6000F093FB06465D
:10257800022292FAA2F3B3FA83F343F02003C3F3DF
:102588004213012B01D1296804E092FAA2F2B2FAAF
:1025980082F2696A022393FAA3F3B3FA83F301225E
:1025A80003F01F0302FA03F30B4205D000F072FB9D
:1025B800801B6428DCD907E72368190704D423683B
:1025C8005A0740F1A7804AE0A269114D134B3AB36C
:1025D80001221A6000F05EFB0646022393FAA3F27A
:1025E800B2FA82F293FAA3F2B2FA82F2696A93FA21
:1025F800A3F3B3FA83F3012203F01F0302FA03F3F0
:102608000B42DCD100F046FB801B6428E5D9DBE6F1
:102618000010024002100240000042428004424280
:102628001A6000F037FB0646022393FAA3F2B2FAC7
:1026380082F293FAA3F2B2FA82F2696A93FAA3F3E6
:10264800B3FA83F3012203F01F0302FA03F30B42E8
:10265800B5D000F01FFB801B6428E5D9B4E6974D80
:10266800974AEB6943F08053EB61136843F4807336
:10267800136000F00FFB0646914B1B68DB054DD538
:102688002B6A23F005032B6200F004FB06460223A5
:1026980093FAA3F2B2FA82F293FAA3F2B2FA82F2AE
:1026A80042F04002C2F342129A420CBF296A696A98
:1026B80093FAA3F3B3FA83F3012203F01F0302FA98
:1026C80003F30B4230D12B6AE26823F0050313436E
:1026D800012A2B6238D100F0DDFA0646022393FA6C
:1026E800A3F2B2FA82F293FAA3F2B2FA82F242F0B9
:1026F8004002C2F342129A420CBF296A696A93FAED
:10270800A3F3B3FA83F3012203F01F0302FA03F3DE
:102718000B4211D0E269002A3DD18BE000F0BAFAF1
:10272800801B6428A8D94FE600F0B4FA41F2883338
:10273800801B9842ABD947E600F0ACFA41F28833E7
:10274800801B9842CAD93FE600F0A4FA0646022345
:1027580093FAA3F2B2FA82F293FAA3F2B2FA82F2ED
:1027680042F04002C2F342129A420CBF296A696AD7
:1027780093FAA3F3B3FA83F3012203F01F0302FAD7
:1027880003F30B42C6D000F085FA41F28833801B70
:102798009842DCD918E6494D6B6803F00C03082B06
:1027A8003FF4E3AD474E0023022A33605CD100F0CA
:1027B80071FA07464FF0007292FAA2F3B3FA83F364
:1027C80043F02003C3F34213012B35D12A684FF09D
:1027D800007393FAA3F3B3FA83F3012103F01F0301
:1027E80001FA03F313422DD1206A626A6B6802432F
:1027F80023F4741313436B60316000F04BFA044602
:102808004FF0007292FAA2F3B3FA83F343F0200375
:10281800C3F34213012B1BD129684FF0007393FABD
:10282800A3F3B3FA83F3012203F01F0302FA03F3BD
:102838000B4213D00020F8BD92FAA2F2B2FA82F24B
:102848006A6AC4E700F026FAC01B6428B2D9BBE55F
:1028580092FAA2F2B2FA82F2696ADEE700F01AFA94
:10286800001B6428CCD9AFE500F014FA04464FF0F9
:10287800007292FAA2F3B3FA83F343F02003C3F38E
:102888004213012B01D1296804E092FAA2F2B2FAAC
:1028980082F2696A4FF0007393FAA3F3B3FA83F3F1
:1028A800012203F01F0302FA03F30B42C2D000F027
:1028B800F1F9001B6428DAD986E500BF0010024050
:1028C8000070004060004242B04AF8B5136803F057
:1028D8000703994204460E4640F2A980136823F084
:1028E80007030B431360136803F007038B4201D0FF
:1028F8000120F8BD01688F0741BFA548436823F050
:10290800F002A36844BF13434360CE070BD4216889
:102918004D0740F12B819E48436823F4E062E36849
:102928001343436022E16268994D012A15D14FF49F
:10293800003191FAA1F3B3FA83F343F02003C3F310
:102948004213012B01D1286804E091FAA1F1B1FAF0
:1029580081F1686A4FF400332AE0022A15D14FF05A
:10296800007191FAA1F3B3FA83F343F02003C3F3A0
:102978004213012B01D1286804E091FAA1F1B1FAC0
:1029880081F1686A4FF0007312E0022191FAA1F315
:10299800B3FA83F343F02003C3F34213012B01D1AD
:1029A800286804E091FAA1F1B1FA81F1686A02237A
:1029B80093FAA3F3B3FA83F3012103F01F0301FA97
:1029C80003F3034294D06B6823F003031A436A604D
:1029D80000F060F96368012B06460DD16B6803F0BF
:1029E8000C03042B93D000F055F941F28833801B77
:1029F8009842F3D90320F8BD022B13D16B6803F07A
:102A08000C03082B83D000F045F941F28833801B72
:102A18009842F3D9EEE700F03DF941F28833801B84
:102A28009842E7D86B6813F00C0FF4D16FE7016890
:102A3800880741BF5648436823F0F002A36844BFA3
:102A480013434360CA070CD4504A136823F00703A2
:102A580033431360136803F00703B3427FF448AFAE
:102A680055E762684A4D012A15D14FF4003191FAB1
:102A7800A1F3B3FA83F343F02003C3F34213012B0A
:102A880001D1286804E091FAA1F1B1FA81F1686AEC
:102A98004FF400332AE0022A15D14FF0007191FA61
:102AA800A1F3B3FA83F343F02003C3F34213012BDA
:102AB80001D1286804E091FAA1F1B1FA81F1686ABC
:102AC8004FF0007312E0022191FAA1F3B3FA83F3F5
:102AD80043F02003C3F34213012B01D1286804E01B
:102AE80091FAA1F1B1FA81F1686A022393FAA3F38A
:102AF800B3FA83F3012103F01F0301FA03F303423E
:102B08003FF4F6AE6B6823F003031A436A6000F0E3
:102B1800C1F86368012B07460CD16B6803F00C03FE
:102B2800042B91D000F0B6F841F28833C01B9842CC
:102B3800F3D95FE7022B14D16B6803F00C03082B61
:102B480082D000F0A7F841F28833C01B9842F3D92D
:102B580050E700F09FF841F28833C01B98423FF6D7
:102B680049AF6B6813F00C0FF3D16DE70B0741BF4A
:102B7800074A2169536823F4605344BF43EAC103F9
:102B880053600F2000F059F80020F8BD00200240E3
:102B980000100240154910B54C6804F00C03082BCE
:102BA80021D14FF4701393FAA3F3B3FA83F304F427
:102BB8007012DBB222FA03F30D4AC96AD25C0F2302
:102BC80093FAA3F3B3FA83F301F00F01DBB221FA0E
:102BD80003F30849C85CE30352BF0748074BB3FB3C
:102BE800F0F0504310BD054810BD00BF0010024072
:102BF80000A70108F0A6010800093D0000127A00AC
:102C080008B5FFF7C7FF094B5A68F02393FAA3F3F7
:102C1800B3FA83F302F0F002DBB222FA03F3044AB8
:102C2800D35CD840034B186008BD00BF00100240B9
:102C3800E0A6010814000020704710B50446FFF70D
:102C4800DFFF4FF47A73B0FBF3F000F085F84FF034
:102C5800FF302146002200F043F8002010BD00009C
:102C6800074A08B5136843F010031360032000F007
:102C780025F80F20FFF7E1FFFFF7DEFF002008BD72
:102C880000200240024A136801331360704700BFF6
:102C9800000C0020014B1868704700BF000C002092
:102CA80013B50190FFF7F6FF0446FFF7F3FF019B0A
:102CB800001B9842F9D302B010BD0000074AD36840
:102CC80023F4E0631B041B0C43F0BF6343F400339D
:102CD80000F0070043EA0023D360704700ED00E0EE
:102CE800154BDB68C3F3022370B5C3F107051C1D40
:102CF800042D28BF0425062C8CBF033B0023012488
:102D080004FA03F6AC40013C013E214099403240B0
:102D1800002842EA01024FEA0212AFBF00F1604008
:102D280000F00F00054BD2B2A5BF00F56140D2B24A
:102D38001A5480F8002370BD00ED00E014ED00E0A7
:102D48004109012300F01F00024A834042F8213064
:102D5800704700BF00E100E00138B0F1807F3FBF5D
:102D6800064B074A5860F0213FBF82F82310002025
:102D78000722986034BF1A600120704710E000E015
:102D880000ED00E02DE9F0410F68002301229A4090
:102D980002EA0705954240F0AC804C6824F0100C1C
:102DA800BCF1020F14D14FEAD30E00EB8E0E03F0E4
:102DB8000706DEF82020B6004FF00F0808FA06F8DC
:102DC80022EA08080A69B24048EA0202CEF820203E
:102DD8004FEA430E0322066802FA0EF2D24302EAD1
:102DE800060804F0030606FA0EF60CF1FF3C48EA62
:102DF8000606BCF1010F066011D8866802EA060CC7
:102E0800CE6806FA0EF64CEA06068660466826EA9A
:102E1800050CC4F300169E404CEA06064660C668D8
:102E280002EA060C8A6802FA0EF64CEA0602C2604A
:102E3800E2005ED5324EB26942F00102B26123F07F
:102E4800030606F1804606F5803603F0030CD6F833
:102E580008E04FEA8C0C0F2202FA0CF2B0F1904F06
:102E68002EEA020E15D0274A904214D002F580624D
:102E7800904212D002F58062904210D002F5806232
:102E880090420ED002F5806290420CBF05220622C5
:102E980008E0002206E0012204E0022202E0032208
:102EA80000E0042202FA0CF242EA0E02B260164A6C
:102EB80016686FEA050E14F4803F14BF2E430EEA1D
:102EC80006061660566814F4003F14BF2E430EEA37
:102ED80006065660966814F4801F14BF2E430EEA47
:102EE80006069660D668A40254BF0EEA0605354366
:102EF800D5600133102B7FF449AFBDE8F08100BFE6
:102F0800001002400004004800040140036919420F
:102F180014BF0120002070470AB101837047418324
:102F28007047436959404161704738B504460028E5
:102F380046D0022380F8413102F050FC656804F164
:102F480029020021A94202F11C024FF000030ED011
:102F5800012002F81D1C02F81C0C02F81A3C42F869
:102F6800113C42F80D3C42F8093C0144EAE704F1FF
:102F7800B502AB4202F11C024FF000000DD002F87E
:102F88001D3C02F81C0C02F81A0C42F8110C42F80D
:102F98000D0C42F8090C0133EBE723680122A3F872
:102FA80040204FF43D42A3F84000A3F84400A3F8A2
:102FB8005000A3F8402084F8240084F8410138BD6B
:102FC800012038BD08B5012100F019FF002008BD17
:102FD80090F84031012B0FD0012380F8403121B9FE
:102FE80003688022A3F84C2001E080F82410002315
:102FF80080F840311846704702207047F0B5CCB2CF
:1030080014F0800F01F07F064FF01C0515BF05FB7B
:10301800060105FB01012831B431E4090E704C703A
:10302800CB7090F84031CA60012B00F081810123F8
:1030380080F84031CC780A780368032C2FD8DFE871
:1030480004F002220D1712B233F82240A4B224F47D
:10305800EC4424F0700444F400741EE012B233F817
:10306800224024F4EC4424F070042404240C14E0DA
:1030780012B233F82240A4B224F4EC4424F07004D1
:1030880044F4C06409E012B233F82240A4B224F434
:10309800EC4424F0700444F4806423F822400A7855
:1030A80016B242F4004533F8264024F0F002120527
:1030B80045F08005120D2A4323F826208C7A0A78D9
:1030C800002C75D14D788C8808263DB3B3F8505044
:1030D800ADB216FB025203EB420264086400C2F868
:1030E80000440C7833F8242052060BD533F82420FA
:1030F80022F0F0021205120D42F4004242F0C00222
:1031080023F82420097833F8212022F4E04222F021
:1031180040021204120C82F02002FEE0B3F8507054
:10312800BFB216FB0272043203F5806564086400BE
:1031380045F81240B3F850200C7892B216FB0422DE
:10314800CE683E2E02F106020BD9C6F34F14F706DD
:1031580004BF04F1FF34A4B26FEAC4646FEA5444B4
:1031680006E0C6F34F04F60744BF0134A4B2A40234
:10317800A4B245F812400C7833F8242052040BD539
:1031880033F8242022F0F0021205120D42F44042D6
:1031980042F0800223F82420097833F8212022F411
:1031A800804222F070021204120C82F44052B4E001
:1031B80012B203F5806533F8224024F4F87424052C
:1031C800240D44F4014444F0800423F82240B3F869
:1031D80050600C780822B6B212FB0466CC886408EA
:1031E800640045F81640B3F850400E78A4B212FBBC
:1031F80006420C8904326408640045F812400C78D1
:103208004A7824B2002A46D133F8242057040BD533
:1032180033F8242022F0F0021205120D42F4404245
:1032280042F0800223F824200C7833F82420560634
:103238000BD533F8242022F0F0021205120D42F4C7
:10324800004242F0C00223F824200C7833F82420EE
:1032580022F0F0021205120D42F4004242F0C002C0
:1032680023F824200C7833F8242022F4804222F01A
:1032780070021204120C82F4405242F4004242F0EE
:10328800800223F82420097833F8212022F0C00294
:103298001205120D41E033F8242055040BD533F8FC
:1032A800242022F0F0021205120D42F4404242F0AE
:1032B800800223F824200C7833F8242052060BD5FA
:1032C80033F8242022F0F0021205120D42F40042D5
:1032D80042F0C00223F824200C7833F8242022F08E
:1032E800F0021205120D42F4404242F0800223F827
:1032F80024200C7833F8242022F0C0021205120D85
:1033080042F4004242F0800223F82420097833F87E
:10331800212022F0F0029204920C42F4004242F082
:10332800800223F82120002380F840311846F0BDA0
:103338000220F0BDCBB213F0800F30B54FF01C0265
:1033480001F07F0415BF02FB040102FB01012831D3
:10335800B431DB090C704B7090F84031012B00F050
:10336800BF80012380F840310A788D7A4C78036851
:1033780012B21DBB84B133F8224064065BD533F822
:10338800224024F0F0042405240D44F4004444F0C1
:10339800C00423F822404EE033F82240650440F18F
:1033A8008D8033F8224024F0F0042405240D44F4E1
:1033B800404444F0800423F822407FE0002C42D1AE
:1033C80033F8224064040BD533F8224024F0F0048B
:1033D8002405240D44F4404444F0800423F822409A
:1033E8000C7833F8242055060BD533F8242022F026
:1033F800F0021205120D42F4004242F0C00223F816
:1034080024200C7833F8242022F0F0021205120D43
:1034180042F4004242F0C00223F824200C7833F82A
:10342800242022F0F0029204920C42F4004242F06E
:10343800800223F82420097833F8212022F0C002E2
:103448001205120D41E033F8224064040BD533F81D
:10345800224024F0F0042405240D44F4404444F0B0
:10346800800423F822400C7833F8242052060BD528
:1034780033F8242022F0F0021205120D42F4004223
:1034880042F0C00223F824200C7833F8242022F0DC
:10349800F0021205120D42F4404242F0800223F875
:1034A80024200C7833F8242022F0C0021205120DD3
:1034B80042F4004242F0800223F82420097833F8CD
:1034C800212022F0F0029204920C42F4004242F0D1
:1034D800800223F82120002380F84031184630BDAF
:1034E800022030BD70B501F07F011C2404FB0104EB
:1034F80004F1C0056A600022AB60C4F8CC2084F8EF
:10350800B52084F8B41090F84031012B62D0012323
:1035180080F84031AB68D4F8C040A34298BFAA6095
:103528004FF01C0202FB010284BF1B1BAB6092F828
:10353800BE5088BF2346B03204680DB1557915BB1B
:10354800B4F850501279ADB205EBC2053E2B04F524
:10355800806605F106050BD9C3F34F12DB0604BFDD
:1035680002F1FF3292B26FEAC2626FEA524206E09B
:10357800C3F34F02DB0744BF013292B2920292B208
:1035880046F815200CE0012D01BFB4F8505012790F
:10359800ADB205EBC20204BF04EB4202C2F80C3420
:1035A8001C2303FB010191F8B42034F8223023F4E2
:1035B800804323F070031B041B0C83F4405343F433
:1035C800004343F0800324F82230002380F8403180
:1035D800184670BD022070BD01F07F011C2303FB5B
:1035E8000100B0F8CC007047F8B501F07F061C2147
:1035F80001FB0601044601F138008A63436000229A
:1036080001230A6481F8293081F8286094F8405130
:103618009D4200F0A88084F840314B6B45681C2718
:1036280007FB06479D4288BFED1A97F8321086BF00
:1036380045601D464260ABB207F1280289B9B96BF3
:103648009288206800F0B3FB216897F82830B1F819
:10365800502092B202EBC30301EB4303C3F80454B6
:1036680067E0527820681ABBB0F8501097F8282005
:1036780089B201EBC2013E2D00F5806701F1060118
:103688000BD9C5F34F12ED0604BF02F1FF3292B217
:103698006FEAC2626FEA524206E0C5F34F02ED07D5
:1036A80044BF013292B2920292B247F811200DE063
:1036B800012A01BFB0F8502097F8281092B202EB07
:1036C800C10204BF00EB4202C2F80C541C2505FBE2
:1036D800064202F1280192F8287030F8277005FB9D
:1036E80006457F0654BFCA88128EA96B00F05FFB9F
:1036F80095F82930226863B995F8281032F82130F6
:1037080023F0F0031B051B0D43F4004343F0C003F3
:103718000DE0012B0DD195F8281032F8213023F057
:10372800F0031B051B0D43F4404343F0800322F8CC
:1037380021301C2303FB0646226896F8281032F82D
:10374800213023F4E04323F040031B041B0C83F0D7
:10375800300343F4004343F08003002022F8213073
:1037680084F84001F8BD0220F8BD0368B3F844307E
:103778001BB2002BF7B5044611DB2368B3F84420CD
:10378800520540F1E7814FF6FF322046A3F8442066
:1037980002F08EF820460021FFF71AFCDAE1002338
:1037A800ADF806302068B0F844309BB21904ADF883
:1037B8000430E2D5BDF8045015F00F0540F0B7808D
:1037C800BDF80410038801F0100189B259BB23F435
:1037D800E14323F070031B041B0C0380B0F8503046
:1037E80094F828209BB203EBC20300EB4300A26BC2
:1037F800D0F80434C3F3090323641344A3632046B5
:1038080002F04AF894F82430002BCBD0E26B002A5F
:10381800C8D194F82430216843F08003A1F84C30D3
:1038280084F82420BEE79BB2ADF80630BDF8063018
:103838001F051FD5B0F8503094F8B4209BB203EBA5
:10384800C20300EB4303B4F8B820D3F80C34C3F335
:103858000903C4F8CC3004F5A27100F0BFFA22685D
:10386800138823F070031B051B0D1380204602F0FC
:1038780003F897E7BDF806301BB2002B92DA0388ED
:1038880023F070031B051B0D0380B0F8503094F82B
:10389800B4209BB203EBC20300EB4303D3F80C3410
:1038A800C3F30903C4F8CC3063B1B4F8B820D4F832
:1038B800C41000F093FAD4F8C420D4F8CC301344E0
:1038C800C4F8C4302046002101F0DDFF2268D4F896
:1038D800C050B2F850103E2D89B202F5806001F157
:1038E80006010BD9C5F34F13EE0604BF03F1FF33EE
:1038F8009BB26FEAC3636FEA534306E0C5F34F0315
:10390800ED0744BF01339BB29B029BB240F81130D4
:10391800138823F4804323F070031B041B0C83F4E7
:10392800405343F4004343F0800313803AE72FB237
:1039380030F827309BB2ADF80630BDF806301BB220
:10394800002B80F2848030F8273023F070031B05A9
:103958001C2202FB05421B0D20F8273002F1B80C8F
:103968009CF8063002F1B00EB3B9B0F850309EF8AA
:1039780004109BB203EBC10300EB4303D3F80C64C0
:10398800C6F30906002E40D0D2F8C410BEF80820AD
:10399800334600F023FA38E09EF8046033B230F87A
:1039A8002330B0F8501013F4804F89B24FF0080359
:1039B80013FB061300EB430309D0D3F80464C6F3E2
:1039C800090686B1D2F8C410BEF80A2008E0D3F878
:1039D8000C64C6F3090636B1D2F8C410BCF804204A
:1039E800334600F0FBF91C2303FB0543226893F8D8
:1039F800B41032F8213023F0F0031B051B0D43F4FB
:103A0800004343F0C00322F821301C2101FB05418B
:103A1800D1F8CC30D1F8C4203344C1F8CC30D1F837
:103A2800C8303244C1F8C4201BB1D1F8C000864266
:103A380008D21C2303FB0543204693F8B41001F079
:103A480022FF04E0204691F8B410FFF74BFDBDF8C3
:103A5800063018067FF5A6AE206830F8273023F424
:103A6800E14323F070031B041B0C1C2202FB0542DC
:103A780020F8273092F8323002F12806A3B9B0F8BE
:103A8800503092F828109BB203EBC10300EB4303BC
:103A9800D3F80434C3F309031364002B3AD0916BB1
:103AA800B28800F084F935E092F828703BB230F81B
:103AB8002330B0F8501013F0400F89B24FF00803CC
:103AC80013FB071300EB430308D0D3F80434C3F304
:103AD8000903136463B1916BF28807E0D3F80C34DF
:103AE800C3F3090313641BB1916B128E00F05FF9E5
:103AF8001C2303FB0543226893F8281032F8213071
:103B080023F0F0031B051B0D43F4404343F08003EF
:103B180022F8213021681C2303FB0545B1F8502009
:103B280095F8283092B202EBC30301EB4303204619
:103B3800D3F80424AB6B95F82810C2F309022A6461
:103B48001A44EB6BAA6313B901F0A6FE2AE6FFF745
:103B58004BFD27E62368B3F84420520444BF4BF6D4
:103B6800FF72A3F84420B3F84420970444BF4DF6ED
:103B7800FF72A3F84420B3F84420D60413D5B3F851
:103B8800402022F004021204120CA3F840204FF443
:103B98003D42A3F84020204601F098FE23684EF6E7
:103BA800FF72A3F844202368B3F84420150518D5FC
:103BB8004FF2FF72A3F84420B3F8402092B242F0CB
:103BC8000802A3F84020B3F8402092B242F0040261
:103BD800A3F84020B3F84430D80402D4204601F0BA
:103BE80074FE2368B3F84420910506D54FF6FF52BA
:103BF800A3F84420204601F057FE2368B3F8442078
:103C0800D20544BF4FF6FF62A3F8442003B0F0BDCD
:103C180090F84031012B10B549D0CCB201231C22B9
:103C280080F8403114F0800F01F07F0315BF02FBCC
:103C3800030202FB01022832B43201219170D9B289
:103C4800E30911705370026879B913889BB223F4A1
:103C5800804323F0400383F4805383F0100343F43C
:103C6800004343F0800313801CE009B253B132F8DB
:103C7800213023F4E04323F040031B041B0C83F0A2
:103C8800100309E032F8213023F4804323F0700355
:103C98001B041B0C83F4805343F4004343F080035C
:103CA80022F82130002380F84031184610BD022048
:103CB80010BDCBB213F0800F10B54FF01C0201F00D
:103CC8007F0415BF02FB040102FB01012831B43156
:103CD800DB0900228A700C704B7090F84031012B80
:103CE80049D0012380F840310C784B78026824B21F
:103CF800DBB132F824305B060BD532F8243023F0E0
:103D0800F0031B051B0D43F4004343F0C00322F8E6
:103D18002430097832F8213023F4E04323F04003BB
:103D28001B041B0C83F030031AE032F824305B04C8
:103D38000BD532F8243023F0F0031B051B0D43F498
:103D4800404343F0800322F82430097832F82130C8
:103D580023F4804323F070031B041B0C83F44053AB
:103D680043F4004343F0800322F82130002380F815
:103D78004031184610BD022010BD11F0800F30B53B
:103D88004FF01C051BBF01F07F0405FB040005FB79
:103D98000100283008BFB43012B98272838004E071
:103DA8000122C3801B0C82720381002030BD0133C5
:103DB80000F5806030B55B1000EB420200249C42A5
:103DC80001F1020109D011F8015C11F8020C40EA76
:103DD800052022F824000134F1E730BD013300F555
:103DE800806010B55B1000EB420200249C4205D0B5
:103DF80052F8240021F814000134F7E710BD704789
:103E080030B50468039D606820F07F7020F4593055
:103E180020F47F7020F0030028430343C1F3090115
:103E28000B4343EA0242626030BD000070B50446AD
:103E38000D46FEF72FFF23680646986910F010001C
:103E480039D094F83520122A07D094F83520522A10
:103E580003D094F83520622A12D15A6890010FD401
:103E68005A6842F480425A600AE09A69920611D46C
:103E7800691CFAD035B1FEF70DFF801BA84201D8A6
:103E88002368F2E7012384F83530002384F83430BE
:103E9800032070BD1022DA612022DA615968064ACF
:103EA8000A405A60042384F836300120002384F83D
:103EB800350084F8343070BD00E800FE2DE9F0418B
:103EC80004460E4690461D46FEF7E4FE0746B8F146
:103ED800000F25D1226893693340B3420ED0691C84
:103EE800F9D07DB1FEF7D6FEC01BA842F2D909E091
:103EF8006B1C06D193693340B342F9D00020BDE86A
:103F0800F08145B9012384F83530002384F8343032
:103F18000320BDE8F081FEF7BDFEC01BA842F1D822
:103F28002268E7E770B504460D46FEF7B3FE06467D
:103F380023689B699B071BD420462946FFF776FF19
:103F4800C0B96A1CF4D06DB994F8363043F0200338
:103F580084F83630012384F83530002384F834306F
:103F6800032070BDFEF796FE801BA842E0D9EBE760
:103F7800002070BD012070BD73B51E464FF400537C
:103F88000446009315464FF08073F2B2FFF738FFEE
:103F980020460699FFF7C6FF30B194F83630042B57
:103FA8000CBF0120032017E0012E236808D02A0A3D
:103FB8009A6220460699FFF7B5FF0028EDD12368DD
:103FC800EDB29D62204680210022069BFFF776FF16
:103FD800002814BF0320002002B070BD73B51E4630
:103FE8004FF400530446009315460023F2B2FFF73E
:103FF80007FF20460699FFF795FF30B194F8363051
:10400800042B0CBF0120032017E0012E236808D0E1
:104018002A0A9A6220460699FFF784FF0028EDD104
:104028002368EDB29D62204640210022069BFFF7DF
:1040380045FF002814BF0320002002B070BD70B5F2
:1040480004460D46FEF726FE064623689B699B0636
:1040580019D420462946FFF7E9FEB0B96DB994F89E
:10406800363043F0200384F83630012384F83530A5
:10407800002384F83430032070BDFEF70BFE801B4C
:10408800A842E2D9EBE7002070BD012070BD70475F
:1040980010B50446002841D090F835300BB9FFF729
:1040A800F6FF022384F835302368E1681A6822F0A5
:1040B80001021A60626822F070621A619A6822F43A
:1040C80000429A60A26842B1012903D142F4004239
:1040D8009A6007E042F404429A60022904BF4FF450
:1040E80000625A605A68616942F0007242F4004204
:1040F8005A6022690A43A16942EA0122DA60216A08
:10410800E2690A431A601A6842F001021A60002044
:10411800012384F8360084F8353010BD012010BD25
:10412800704710B5044688B10268022380F835301C
:10413800136823F001031360FFF7F2FF002084F8EF
:10414800360084F8340084F8350010BD012010BD15
:104158002DE9F34790F83550DDF82890BDF82C602C
:10416800DDF830A0EDB2012D0446884664D1B9F1DE
:10417800000F01D1012062E0002EFBD00768BF6963
:1041880017F4004758D190F834E0BEF1010F53D02E
:104198004FF0520E80F835E080F8345080F83670D1
:1041A800CDF800A0FFF7E8FE20B194F8363084F887
:1041B800347031E00090FF2E204641461CD8F2B200
:1041C8004FF00073FFF71CFE354620465146FFF7B7
:1041D800A9FEF8B9236819F8012B9A62013E013D3E
:1041E800B6B210D18EB1204680212A465346FFF739
:1041F80065FE18BB0095DEE7FF224FF08073FFF7DE
:10420800FFFDFF25E1E7002EDFD120461921FFF74A
:1042180016FF20B194F83630042B0FD1AAE7236893
:104228002022DA615968074A0A405A60012384F853
:10423800353084F8340002E0022000E0032002B0A8
:10424800BDE8F08700E800FE2DE9F34790F8355007
:10425800DDF82890BDF82C60DDF830A0EDB2012D16
:10426800044688466CD1B9F1000F01D1012068E0FD
:10427800002EFBD00768BF6917F4004760D190F89B
:1042880034E0BEF1010F5BD04FF0620E80F835E0EC
:1042980080F8345080F83670CDF800A0FFF79EFE05
:1042A80020B194F8363084F8347038E04FF4105365
:1042B800FF2E00932046414621D8F2B24FF00073FA
:1042C800FFF79EFD35462046042100225346FFF79E
:1042D800F5FD30BB2368013E5B6A09F8013B013DEF
:1042E800B6B213D1A6B1204680212A465346FFF71D
:1042F800E5FDB0B9009520464146FF2EDCE7FF22D8
:104308004FF08073FFF77CFDFF25DCE7002EDAD144
:1043180020461921FFF793FE28B194F83630042B74
:10432800A4D003200DE023682022DA615968064AE8
:104338000A405A60012384F8353084F8340000E0DC
:10434800022002B0BDE8F08700E800FE90F83500D2
:104358007047704703689A6812F00C0F70B50446EE
:1043680001D1002070BD9A68900110D5E269012A38
:104378000DD1A269012A0AD1204A1968490602D436
:10438800013AFAD131E040221A600C2101E060299B
:104398000BD09A68560706D59A6895075EBF9A6843
:1043A80042F010029A600C2910D09A68100706D5BE
:1043B8009A6892075EBF9A6842F020029A60602964
:1043C80002D06C2904D001E0082502E0042500E0B1
:1043D8000C25FEF75FFC064623689B681D42C0D08B
:1043E800FEF758FC801B0B28F6D9042384F84530C7
:1043F800A36C43F00103A364012070BD019409007C
:1044080038B503680446986800F00300012801D015
:10441800002038BD1A68D207FAD59A6802F00D0252
:10442800012A09D19A6842F002029A6003221A60AE
:10443800FEF730FC054607E0042384F84530A36CFA
:1044480043F00103A36438BD23689B68DB07DFD50D
:10445800FEF720FC401B0228F6D9042384F84530D7
:10446800A36C43F00103A364012038BD38B5036889
:104478009A6802F00302012A044604D11A68D20796
:1044880001D5002038BD99680D4A0A407AB99A6862
:1044980042F001029A60FEF7FDFB054623681B689F
:1044A800DB07EED4FEF7F6FB401B0228F6D90423FF
:1044B80084F84530A36C43F00103A364012038BDA0
:1044C8003F00008070B5044694B0002844D090F8AE
:1044D80045300BB1002016E0FFF73BFF23689B68CF
:1044E800DE00F7D42046FFF78BFF01280BD002230C
:1044F80084F8453023689A6822F040529A609A6896
:1045080042F080529A6023689A6802F04052B2F1F1
:10451800805F1FBF042284F84520A26C42F001028C
:1045280018BFA26494F8452018BF0120042A10D0AF
:104538009A6812F004010CD10222B3F1A04F84F85A
:1045480045204D4A0AD0934240F087804FF0A04260
:1045580004E0042384F8453001208AE00192474AA8
:10456800996801F00301012902D11968CD070AD41D
:104578000199002968D08D6805F00305012D63D1E4
:104588000968C90760D5D9683D4AA668E5690A403F
:10459800DA60A26B012AE26842EA06020CBF002137
:1045A8004FF4805142EA45320A43616A012906D133
:1045B8002DB9A16A013942EA414242F48032E16AE6
:1045C80001291AD02F4DAB4203D005F58075AB42B7
:1045D80010D1B1F5307F08D0B1F5807F08D0B1F5A2
:1045E800E07F08BF4FF4807104E04FF4E07101E010
:1045F8004FF43071256B2A430A43996811F00C0F68
:104608000BD1D968656B21F4804121F00201D96092
:10461800A169890341EA45010A43D9680A43DA6076
:104628001A6B22F00F021A632269012A01BF226A5B
:10463800196B02F1FF320A4308BF1A630023A3640F
:10464800012384F8453014E0916821F440319160E9
:10465800956861682943916095E70A4D0A4AAB421B
:1046680001D1019203E093420CBF01950191074AE1
:1046780076E714B070BD00BF000100500003005081
:1046880007C0F0FF0004005000050050000700506C
:1046980090F84430012B10B5044631D0012380F83E
:1046A8004430FFF7E3FE012826D094F84530222B4A
:1046B8000CBF3223122384F845300023A3642368F7
:1046C8001C22B3F1A04F1A6002D00E4A934204D1C3
:1046D8000D4A9268D1060BD004E00C4A9268D206C3
:1046E80006D002E0B3F1A04F02D0094A934203D1A9
:1046F8009A6842F004029A60002384F8443010BD9E
:10470800022010BD000100500003005000070050B7
:104718000004005038B590F84430012B044612D0FC
:10472800012580F844506C21FFF714FEA84206D0FA
:104738002046FFF765FEA84218BF84F845500023BD
:1047480084F8443038BD022038BDF8B54369082BD9
:1047580004460D460CBF08260C26FEF79BFA0746B2
:1047680023681A68164210D16A1CFAD03DB903238F
:1047780084F84530002384F844300120F8BDFEF762
:1047880089FAC01BA842EBD9F1E7A2690AB90C2241
:104798001A6094F84530042B0BD094F84530352B2B
:1047A80007D094F84530252B0CBF3523152384F802
:1047B80045300020F8BD03680C221A60186C704759
:1047C800F0B590F84430012B95B000F0F5800368FF
:1047D8009C680122670780F8442000F1E4804D6856
:1047E8000C68042D4FF006020CD81E6B6A431F2577
:1047F800954026EA05051D631D6B04FA02F22A435B
:104808001A632CE0092D0DD86A435E6B1E3A1F25EA
:10481800954026EA05055D635D6B04FA02F22A43BA
:104828005A631CE00E2D0DD86A439E6B3C3A1F2537
:10483800954026EA05059D639D6B04FA02F22A431A
:104848009A630CE06A43DE6B5A3A1F25954026EAC4
:104858000505DD63DD6B04FA02F22A43DA639A6820
:1048680012F00C0F7BD10A2C4FEA44028D680CD948
:1048780022449F691E3A0726964027EA06069E614B
:104888009E69954035439D610AE05F692244072689
:10489800964027EA06065E615E69954035435D618C
:1048A800DE684D69C6F3C1067600B5400E69013E63
:1048B800A206032E2FD8DFE806F0020D18231F6E7C
:1048C8007A4E3E401E661E6E46F000463243154341
:1048D8001D6644E05F6E754E3E405E665E6E46F055
:1048E8000046324315435D6639E09F6E6F4E3E4089
:1048F8009E669E6E46F00046324315439D662EE046
:10490800DF6E6A4E3E40DE66DE6E46F0004632439B
:104918001543DD6623E01D6E05F0F845954202BF9C
:104928001D6E25F000451D665D6E05F0F845954243
:1049380002BF5D6E25F000455D669D6E05F0F84589
:10494800954202BF9D6E25F000459D66DD6E05F01F
:10495800F845954202BFDA6E22F00042DA669A689C
:1049680002F00302012A02D11A68D60719D4CA68CC
:10497800012A23D0D3F8B0100122A24021EA020272
:10498800C3F8B020B3F1A04F3DD04949494A4A4D38
:10499800AB4218BF0A46102C37D1916811F4000FAA
:1049A8003FD0002303E0042380F84530134600225B
:1049B80080F84420184677E0022075E0D3F8B0501C
:1049C800A2402A430A2CC3F8B0208A680DD904EB08
:1049D80044019E691B3907258D4026EA05059D611E
:1049E8009D698A402A439A61CCE7611C5E6901EBA4
:1049F800410107258D4026EA05055D615D698A400C
:104A08002A435A61BEE72B4AC5E7112C03D19168A6
:104A180011F0807FC4E7122CC3D1916811F4800F84
:104A2800BEE7B3F1A04F24490DD08B4202D14FF01D
:104A3800A04108E02149224D8B4201D1019503E0B4
:104A4800AB4218BF00210191996801F003010129C7
:104A580002D11968CD0709D4019961B18D6805F0B3
:104A68000305012D07D10968C90704D5042380F877
:104A7800453001239BE7102C07D1B3F1A04F90D10B
:104A8800936843F4000393608BE7112C06D1B3F1CC
:104A9800A04F86D1936843F08073F4E7122C80D13D
:104AA800936843F48003EEE715B0F0BD00F0FF8390
:104AB800000700500003005000010050000400509F
:104AC800000500502DE9F04104460F4616461D46E4
:104AD800FEF7E0F8804623689A683A40B24234D03C
:104AE8006A1CF9D04DB923685A6822F0E0025A606E
:104AF8006268B2F5827F12D106E0FEF7CBF8C8EB08
:104B08000000A842E7D9EEE7A268B2F5004F02D04C
:104B1800B2F5806F03D11A6822F040021A60A26AC7
:104B2800B2F5005F01BF1A6822F400521A601A68D1
:104B380004BF42F400521A60012384F85D30002358
:104B480084F85C300320BDE8F0810020BDE8F081E6
:104B58002DE9F34104460F4616461D46FEF79AF81E
:104B6800804621688A683A40B2423BD0B7F5C06FA8
:104B780004D11EB90B7BDBB28DF807306B1CF1D06A
:104B88004DB923685A6822F0E0025A606268B2F5AB
:104B9800827F12D106E0FEF77DF8C8EB0000A8423C
:104BA800DFD9EEE7A268B2F5004F02D0B2F5806F08
:104BB80003D11A6822F040021A60A26AB2F5005FB7
:104BC80001BF1A6822F400521A601A6804BF42F43E
:104BD80000521A60012384F85D30002384F85C30A9
:104BE800032000E0002002B0BDE8F08138B50D4692
:104BF80000224FF4C0512B460446FFF7A9FF024696
:104C080068B9204680212B46FFF75CFF024630B981
:104C180020464FF4C0612B46FFF79AFF30B194F855
:104C28005E3043F0200384F85E30032038BD7047BF
:104C380070B5044600284CD0022380F85D30FFF799
:104C4800F6FF2168E2680B68B2F5E06F23F04003D5
:104C58000B604FF0000303D91846B2F5706F01E0FE
:104C68004FF4805018BFA362236B2BB9B2F5E06FE5
:104C78008CBF0223012323636568A668A3692E43BA
:104C880025692E4365692E43E5692E43256A2E431F
:104C9800A56A2E4303F4007535430D60256B022D7C
:104CA80002BF0D6845F400650D60656A2A43656BAF
:104CB8001B0C154303F0040245EA020303434B604F
:104CC800E36A0B610020012384F85E0084F85D30FC
:104CD80070BD012070BD704710B5044688B10268E8
:104CE800022380F85D30136823F040031360FFF758
:104CF800F2FF002084F85E0084F85D0084F85C0010
:104D080010BD012010BD2DE9F74F90F85D500C9EA5
:104D18004FF0000B012D0446894692469846ADF89F
:104D280006B001D0022038E1002900F03381002AC2
:104D380000F03081002B00F02D81FDF7ABFF94F8D7
:104D48005C30012B0746EDD0052384F85D30A36A5B
:104D5800226884F85C50B3F5005F08BF136884F8D4
:104D68005EB008BF23F40053C4F840A0A4F84680FE
:104D7800A4F84480C4F83890A4F83E80A4F83C8095
:104D880004BF13601368E16804BF43F40053136061
:104D9800B1F5E06F536802D8B8F1010F02D923F4D6
:104DA800805301E043F480535360136858065EBF94
:104DB800136843F040031360B1F5E06F4BD9E38FFC
:104DC800B4F84600002B34D022689168890711D5C1
:104DD800A16B0988D160A16B013B02319BB2A16331
:104DE800E3873BB9A36AB3F5005F02BF136843F4D6
:104DF8008053136068B123689A68D20709D5DA68C6
:104E0800236C23F8022B2364B4F84630013BA4F842
:104E18004630751CD3D036B9012384F85D300023A1
:104E280084F85C30B8E0FDF735FFC01BB042C6D946
:104E3800F2E70028DED1A36AB3F5005F40F08A806C
:104E48005DE022689168880709D4B4F84630002BE1
:104E580026D1731C46D1E38F002BF2D14AE0A16B17
:104E6800022B9FBF4B1CA3630B78137391BFE38F77
:104E78000988D160023B94BF03F1FF33A26BE3873B
:104E8800E38F84BF0232A263002BDED1A36AB3F59D
:104E9800005F01BF2268136843F480531360D4E7AE
:104EA80022689168C907D4D5012B236C10D9D16821
:104EB80023F8021B2364B4F84630023B9BB2012B53
:104EC800A4F84630C5D8536843F480535360C0E70C
:104ED800591C2164127B1A70B4F84630013BA4F8BF
:104EE8004630B6E7002E97D0FDF7D4FEC01BB0427F
:104EF800B1D991E7B4F84630002BA6D19BE702213F
:104F080020460A463346FFF7DDFD28B194F85E30A7
:104F180043F0020384F85E30E368B3F5706F2368EA
:104F280002D1DB689BB213E0216B1B7BADF8063026
:104F380002290FD120460A463346FFF7C3FD28B1A0
:104F480094F85E3043F0020384F85E3023681B7BDC
:104F5800ADF8063020463146FFF748FEE0B925682F
:104F6800AA68012312F0100184F85D3094F85E20DD
:104F78000AD042F0020284F85E206FF01002AA60A4
:104F880084F85C00184608E0101C84F85C1018BF10
:104F9800012002E0284600E0032003B0BDE8F08FBE
:104FA80090F85D00704708B580B1D0F8143213B19D
:104FB8000023C0F8143209B1C0F81012012380F898
:104FC800FC31027000F084FC002008BD022008BDFE
:104FD80019B1C0F81412002070470220704708B5B4
:104FE80000F0B4FC002008BD08B5D0F814320BB9A5
:104FF800022008BD1B6898470028F9D108BD08B5EC
:10500800D0F814325B689847002008BD38B50446CC
:1050180000F50275284600F0C8F8012394F8081234
:10502800C4F8F431B4F80E32C4F8F83101F01F03B3
:10503800012B0CD006D3022B0ED12046294600F0B6
:10504800F7F90EE02046294600F0CEF809E02046A0
:10505800294600F0D5F904E0204601F0800100F06F
:105068008DFC002038BD10B5044609BBD0F8F431DA
:10507800032B26D1D0F80C11D0F8103199420AD957
:10508800C91A8B4228BF0B46C0F80C1111469AB2B8
:1050980000F06BFA15E0D0F814321B6923B190F8D0
:1050A800FC21032A00D19847204600F067FA08E05F
:1050B800D0F814329B6923B190F8FC21032A00D15F
:1050C8009847002010BD38B50446A9BBD0F8F43184
:1050D800022B29D1C569036A9D4206D9EB1A1146EC
:1050E800C3619AB200F028FA1EE08269B2FBF3F5B8
:1050F80003FB15255DB99A4209D3D0F8F8319A42D5
:1051080005D22A4600F018FAC4F8F8510CE0D4F891
:105118001432DB682BB194F8FC21032A01D1204614
:105128009847204600F035FA94F80032012B0CD14C
:10513800002384F8003208E0D0F814325B6923B108
:1051480090F8FC21032A00D19847002038BD38B5D3
:10515800002104460A464025402300F0FEFB2B466A
:10516800C4F8105120468021002200F0F6FB0123EC
:1051780084F8FC31D4F8183225622BB1D4F81432F3
:1051880021795B6820469847002038BD01740020CB
:10519800704708B590F8FC21032A04D1D0F81432DE
:1051A800DB6903B19847002008BD0B7803704B7882
:1051B8004370CA788B7803EB022343804A790B79D2
:1051C80003EB02238380CA798B7903EB0223C38024
:1051D800704710B58021044600F0D0FB204600211E
:1051E800BDE8104000F0CABB73B54B7804460D46C5
:1051F800092B00F2FC80DFE813F0CE00E500FA008E
:10520800E100FA0077000A00FA00BD0093004B881D
:105218001A0A013A062A00F2EA80DFE812F00700CB
:105228000B001800E800E8003D004900D0F81032F3
:105238001B682CE0027CD0F814320AB99B6A00E0A3
:10524800DB6A0DF106009847022301463CE0DBB219
:10525800052B00F2CC80DFE803F003070B0F1317D0
:10526800D0F810325B6812E0D0F810329B680EE07C
:10527800D0F81032DB680AE0D0F810321B6906E07B
:10528800D0F810325B6902E0D0F810329B69207CBC
:105298000DF10601984709E0037C002B40F0A78038
:1052A800D0F814320DF106005B6B984701460CE00C
:1052B800037C002B40F09B80D0F814320DF10600DF
:1052C8001B6B9847072301464B70BDF80630002B2F
:1052D80000F09180EA88002A00F08D809A4228BF69
:1052E8001A46ADF8062054E08B88002B7FD1CB8876
:1052F800002B7CD190F8FC318E78032B06F07F06CA
:1053080075D080F8FE61314600F059FB204600F068
:1053180035F90EB1022300E0012384F8FC316AE07C
:105328008978364E0129317061D890F8FC31022B0A
:1053380002D0032B08D05AE0002954D001210323BE
:10534800416080F8FC310FE031B9022380F8FC316C
:105358004160FFF754FE46E04168012943D0C9B2D5
:10536800FFF74DFE317861602046FFF73DFE0228C9
:1053780039D13CE0CA88012A39D190F8FC31022B96
:1053880003D0032B33D1011D15E00146002341F85A
:10539800083F20460FE090F8FC31023B012B26D84D
:1053A8000123C360D0F804320BB10323C360204645
:1053B80004F10C01022200F0B1F81CE04B88012B2B
:1053C80019D108E090F8FC31023B012B0FD84B882B
:1053D800012B10D10023C4F80432D4F8143220462B
:1053E8009B6829469847204600F0C8F803E0204605
:1053F8002946FFF7EEFE002002B070BD040C002025
:1054080038B590F8FC31032B04460D460CD10B79C6
:10541800012B09D8D0F814329B689847EB882BB930
:10542800204600F0ABF801E0FFF7D3FE002038BDBE
:1054380070B54E788A88012E04460D46D3B210D036
:1054480026D3032E4BD190F8FC21022A27D0032A19
:1054580043D14A8892B95E0610D0194600F08EFAF8
:105468000CE090F8FC21022A19D0032A35D14A8889
:10547800AABB590608D0194600F087FAD4F81432A6
:1054880020469B6829469847204600F077F826E092
:1054980090F8FC51022D02D0032D06D01DE05A06CB
:1054A8001DD0194600F06AFA19E003F07F0512F0E2
:1054B800800F00EB0515194614BF143505F58275E4
:1054C80000F06AFA10B101232B6000E02860204642
:1054D8002946022200F022F801E0FFF77AFE0020B8
:1054E80070BD30B5C8B10446231A14F8015BDBB2AD
:1054F800002DF9D15B00023313800B7003234B702E
:105508000138022310F8014F3CB15A1CD2B2CC54D6
:1055180002330024DBB28C54F4E730BD38B51346AF
:105528000D460222C0F8F4218361C36100212A4696
:1055380000F04CFA002038BD10B50C461346002187
:10554800224600F043FA002010BD38B513460D4638
:105558000322C0F8F421C0F80831C0F80C3100214A
:105568002A4600F03AFA002038BD10B50C4613461A
:105578000021224600F031FA002010BD08B50021B4
:105588000423C0F8F4310A460B4600F01FFA002045
:1055980008BD08B500210523C0F8F4310A460B46BA
:1055A80000F01BFA002008BDD0F818321BB100200B
:1055B800C3F81402704702207047D0F81C3210B5A7
:1055C800D0F818425BB194F80002FF2807D09B6816
:1055D80094F8012221469847FF2384F800320020DE
:1055E80010BD0000432303800048704718000020C6
:1055F8004323038000487047E400002043230380CE
:1056080000487047A00000200A2303800048704724
:105618009400002038B50546D0F8184200F0E4F9A7
:10562800D5F81832C4F80C024BB1D5F81C32D4F8AE
:105638000402DB6804F503719847002038BD022096
:1056480038BDF8B50C460978D0F8185201F0600357
:10565800202B064620D1E2886378BAB109060BD51B
:10566800D0F81C1218468F682946B8473046294694
:10567800E288FFF753FF0FE085F80032E38885F8EA
:1056880001322946E288FFF760FF05E0D0F81C12D6
:1056980018468C681146A0470020F8BD10B5812136
:1056A800044600F064F90121204600F060F9204624
:1056B800822100F05CF9D4F8183253B1D4F81C32C6
:1056C8005B689847D4F8180200F098F90023C4F8EA
:1056D8001832002010BDF8B5037C0446812102224F
:1056E8004BB94FF4007300F038F92046012102222B
:1056F8004FF4007306E0402300F02FF92046012103
:105708000222402300F029F982210322082320469F
:1057180000F023F94FF4077000F06CF90646C4F85E
:105728001802C8B1D4F81C321B689847277CD6F8F1
:1057380004220025C6F814522046C6F81852012142
:105748002FB94FF4007300F048F93846F8BD4023EC
:1057580000F043F92846F8BD0120F8BD19B1C0F89A
:105768001C120020704702207047D0F81832002021
:10577800C3F80812C3F810227047D0F81832002076
:10578800C3F80412704738B5D0F8185275B1D5F877
:1057980014426CB9B5F81032D5F80822812100F00E
:1057A80015F90123C5F81432204638BD022038BD4A
:1057B800012038BDD0F8183210B563B1047CD3F895
:1057C8000422012114B94FF4007300E0402300F0D3
:1057D80004F9002010BD022010BD00002DE9F041A1
:1057E800244C636943F400336361636986B043F40E
:1057F800802363614FF4C056112300254FF003083E
:105808000E2701A94FF09040029301960395CDF819
:1058180010800597FDF7B6FA31462A464FF09040BA
:10582800FDF77AFB0120FDF73BFA314601224FF0E4
:105838009040FDF771FB022301A94FF090400293BD
:1058480001960395CDF810800597FDF79BFAE3695B
:1058580043F40003E361A36943F00103A361052155
:105868002A461420FDF73CFA1420FDF769FA06B021
:10587800BDE8F08100100240014601F5A271D0F8A0
:105888007401FFF7C3BB1C2303FB0103D0F87401A9
:10589800D3F8C420FFF7E7BB1C2303FB0103D0F8B0
:1058A80074019A6BFFF70FBCD0F87401FFF771BC55
:1058B80010B504460121D0F87401FFF767FCD4F84D
:1058C8007401BDE81040FFF742BC70477047000004
:1058D80038B51C4A05461C48C5F820020823002490
:1058E80080E80C000223C46003618360C0F874512F
:1058F800FDF71BFB21462246D5F820024023FEF780
:105908003CFA802122460B46D5F82002FEF735FAEC
:105918002246D5F820028121C023FEF72EFA22461E
:10592800D5F8200201214FF48873FEF726FAD5F83E
:105938002002822122464FF48073FEF71EFA204689
:1059480038BD00BF005C00402012002008B5D0F828
:105958002002FDF737FB002008BD10B51446D0F82B
:1059680020021A462346FDF749FB002010BD08B562
:10597800D0F82002FDF7DEFC002008BD08B5D0F8FD
:105988002002FEF745F9002008BD08B5D0F820022E
:10599800FEF78FF9002008BD11F0800FD0F8202203
:1059A80018BF01F07F034FF01C0015BF00FB032157
:1059B80000FB012191F82A0091F8B600704708B55C
:1059C800D0F82002FDF704FB002008BD08B5D0F888
:1059D8002002FDF709FE002008BD08B5D0F8200216
:1059E800FDF780FD002008BD08B5D0F82002FDF7BE
:1059F800F3FD08BD00487047080C00207047000000
:105A080012230B800048704761A7010804230B800C
:105A18000048704710A7010830B50024E3B293424C
:105A28000DD2030F092B94BF3033373301F81430EC
:105A380001EB4403002500015D700134EEE730BD41
:105A48001A2310B5094A0B80094B50681B68146863
:105A5800181808D007490822FFF7DEFF2046064934
:105A68000422FFF7D9FF054810BD00BFB0F7FF1F9C
:105A7800ACF7FF1F4601002056010020440100201A
:105A880010B5044C04480A462146FFF72AFD204673
:105A980010BD00BF9813002014A7010810B5044CCE
:105AA80004480A462146FFF71CFD204610BD00BFEA
:105AB8009813002035A7010810B5044C04480A467D
:105AC8002146FFF70EFD204610BD00BF98130020A9
